:100200000C9450010C946D010C946D010C946D01D3
:100210000C946D010C946D010C946D010C946D01A6
:100220000C946D010C946D010C946D010C946D0196
:100230000C946D010C946D010C946D010C946D0186
:100240000C946D010C946D010C946D010C946D0176
:100250000C946D010C946D010C946D010C946D0166
:100260000C946D010C946D010C946D010C946D0156
:100270000C946D010C946D010C946D010C946D0146
:100280000C946D010C946D010C946D010C946D0136
:100290000C94D3010C946D010C946D010C946D01C0
:1002A00011241FBECFEFCDBFDFE3DEBF18E2A0E019
:1002B000B8E2EAEBF6E002C005900D92A430B10777
:1002C000D9F728E2A4E0B8E201C01D92A631B20736
:1002D000E1F70E9437020C9409030C94000190E0AE
:1002E000FC01EF56F94B40814F3F09F446C0FC0139
:1002F000EA5EF94BE081EE2329F0E13089F010F05D
:10030000E63000F1FC01E859F94BE081A0E2EA9FF8
:10031000F0011124FC5F20812423F1F0458308952E
:100320006091010AFC01E15CF94B50815C5F21E0C6
:1003300030E001C0220F5A95EAF72095262320933A
:10034000010AE0CF20E1E29FF0011124E05AF54FCD
:1003500021812F7E2183D6CF815C994BDC018C914A
:10036000309761F08F3F51F07096E80FF11D9FB705
:10037000F8948081886080839FBF0895F0E0E0E07A
:10038000F6CF90E0FC01EF56F94B20812F3F51F062
:100390008859994BDC01EC91B0E2EB9FF0011124FC
:1003A000FC5F218308951F920F920FB60F921124C4
:1003B0002F933F934F935F936F937F938F939F936D
:1003C000AF93BF9340911228509113286091142845
:1003D00070911528809110289091112820910E2855
:1003E00030910F28420F531F611D711D20910C2861
:1003F00030910D28820F931F883E23E0920730F042
:10040000885E93404F5F5F4F6F4F7F4F8093102800
:100410009093112840931228509313286093142826
:10042000709315288091082890910928A0910A2896
:10043000B0910B280196A11DB11D809308289093BF
:100440000928A0930A28B0930B2881E08093B60A6C
:10045000BF91AF919F918F917F916F915F914F91DC
:100460003F912F910F900FBE0F901F90189588ED20
:1004700090E084BF9093610080E094E2A4EFB0E04C
:100480008093002890930128A0930228B09303281A
:10049000809102068660809302068091000681604A
:1004A00080930006809102068F7C809302068091E3
:1004B000A0008F788093A0008091020680618093D5
:1004C00002061092E20581E08093E40583E08093C8
:1004D000010A8FEF90E08093260A9093270A80E824
:1004E00090E08093380A9093390A80933A0A909367
:1004F0003B0A80933C0A90933D0A8BE08093000A6C
:100500008091E50581608093E5058091E505826035
:100510008093E505E0E8FAE037E02FEF90E885E02A
:1005200031832487958780837096E03C4AE0F40706
:10053000B9F780E094E08093062890930728809193
:100540000628909107282FEF30E0B9010E94F502AC
:1005500060930428709305288091062890910728BD
:10056000E8EEF3E0BF010E94F50260930E2870935D
:100570000F288091062890910728BF010E94F5025C
:1005800080930C2890930D282093BC0A3093BD0AC9
:100590008091B50A81608093B50A84E08093B00AA7
:1005A0008091B00A81608093B00A78948CE10E94B7
:1005B000C1018CE10E946F018DE10E94C1018DE1BA
:1005C0000E946F0183E20E94C10183E20E946F01D9
:1005D0008EE10E94C1018EE10E946F01C0E0D0E077
:1005E0002097F1F30E940000FBCFAA1BBB1B51E137
:1005F00007C0AA1FBB1FA617B70710F0A61BB70B93
:10060000881F991F5A95A9F780959095BC01CD0137
:060610000895F894FFCFED
:1006160000000003000102000001010000000000CC
:1006260000000000000000000000000000000000C4
:10063600000000000000000000050400050602049A
:100646000103000100010200010203040502030385
:10065600050406050406070307000102020300015C
:100666000706020200050201050004010104040454
:10067600030303030303000002000003010100005B
:1006860001020202020505050503052010012040AE
:1006960004100208010201020401020408102004E9
:1006A6000808201040201040800880010204040839
:0406B600010280407D
:0406BA000024F40024
:0400000300000200F7
:00000001FF
